:020000040000fa
:080000000001040000000000f3
:020000040000fa
:0400080020020000d2
:020000040000fa
:04000c00620200008c
:020000040000fa
:04001000a202000048
:020000040000fa
:0400140040020000a6
:020000040000fa
:040018008202000060
:020000040000fa
:04001c00d00300000d
:020000040000fa
:04002000d003000009
:020000040000fa
:04002400d003000005
:020000040000fa
:04002800d003000001
:020000040000fa
:04002c00d0030000fd
:020000040000fa
:04003000d0030000f9
:020000040000fa
:040034009a0300002b
:020000040000fa
:04003800d0030000f1
:020000040000fa
:04003c00d0030000ed
:020000040000fa
:04004000d0030000e9
:020000040000fa
:04004400d0030000e5
:020000040000fa
:04004800d0030000e1
:020000040000fa
:04004c00d0030000dd
:020000040000fa
:04005000d0030000d9
:020000040000fa
:040054001e03000087
:020000040000fa
:04005800c2020000e0
:020000040000fa
:04005c00d0030000cd
:020000040000fa
:04006000d0030000c9
:020000040000fa
:04006400d0030000c5
:020000040000fa
:04006800d0030000c1
:020000040000fa
:04006c00d0030000bd
:020000040000fa
:04007000d0030000b9
:020000040000fa
:04007400d0030000b5
:020000040000fa
:04007800d0030000b1
:020000040000fa
:04007c00d0030000ad
:020000040000fa
:04008000d0030000a9
:020000040000fa
:04008400d0030000a5
:020000040000fa
:04008800d0030000a1
:020000040000fa
:04008c00d00300009d
:020000040000fa
:04009000d003000099
:020000040000fa
:04009400d003000095
:020000040000fa
:04009800d003000091
:020000040000fa
:04009c00d00300008d
:020000040000fa
:0400a000d003000089
:020000040000fa
:0400a400d003000085
:020000040000fa
:0400a800d003000081
:020000040000fa
:0400ac00d00300007d
:020000040000fa
:0400b000d003000079
:020000040000fa
:0400b400d003000075
:020000040000fa
:0400b800d003000071
:020000040000fa
:0400bc00d00300006d
:020000040000fa
:0400c000d003000069
:020000040000fa
:0400c400d003000065
:020000040000fa
:0400c800d003000061
:020000040000fa
:0400cc00d00300005d
:020000040000fa
:0400d000d003000059
:020000040000fa
:0400d400d003000055
:020000040000fa
:0400d800d003000051
:020000040000fa
:0400dc00d00300004d
:020000040000fa
:0400e000d003000049
:020000040000fa
:0400e400d003000045
:020000040000fa
:0400e800d003000041
:020000040000fa
:0400ec00d00300003d
:020000040000fa
:0400f000d003000039
:020000040000fa
:0400f400d003000035
:020000040000fa
:0400f800d003000031
:020000040000fa
:0400fc00d00300002d
:020000040000fa
:04010000d003000028
:020000040000fa
:04010400d003000024
:020000040000fa
:04010800d003000020
:020000040000fa
:04010c00d00300001c
:020000040000fa
:04011000d003000018
:020000040000fa
:04011400d003000014
:020000040000fa
:04011800d003000010
:020000040000fa
:04011c00d00300000c
:020000040000fa
:04012000d003000008
:020000040000fa
:04012400d003000004
:020000040000fa
:04012800d003000000
:020000040000fa
:04012c008403000048
:020000040000fa
:04013000d0030000f8
:020000040000fa
:04013400d0030000f4
:020000040000fa
:04013800d0030000f0
:020000040000fa
:04013c00d0030000ec
:020000040000fa
:04014000d0030000e8
:020000040000fa
:04014400d0030000e4
:020000040000fa
:04014800d0030000e0
:020000040000fa
:04014c00d0030000dc
:020000040000fa
:04015000d0030000d8
:020000040000fa
:04015400d0030000d4
:020000040000fa
:04015800d0030000d0
:020000040000fa
:04015c00d0030000cc
:020000040000fa
:04016000d0030000c8
:020000040000fa
:04016400d0030000c4
:020000040000fa
:04016800d0030000c0
:020000040000fa
:04016c00d0030000bc
:020000040000fa
:04017000d0030000b8
:020000040000fa
:04017400d0030000b4
:020000040000fa
:04017800d0030000b0
:020000040000fa
:04017c00d0030000ac
:020000040000fa
:04018000d0030000a8
:020000040000fa
:04018400d0030000a4
:020000040000fa
:04018800d0030000a0
:020000040000fa
:04018c00d00300009c
:020000040000fa
:04019000d003000098
:020000040000fa
:04019400d003000094
:020000040000fa
:04019800d003000090
:020000040000fa
:04019c00d00300008c
:020000040000fa
:0401a000d003000088
:020000040000fa
:0401a400d003000084
:020000040000fa
:0401a800d003000080
:020000040000fa
:0401ac00d00300007c
:020000040000fa
:0401b000d003000078
:020000040000fa
:0401b400d003000074
:020000040000fa
:0401b800d003000070
:020000040000fa
:0401bc00d00300006c
:020000040000fa
:0401c000d003000068
:020000040000fa
:0401c400d003000064
:020000040000fa
:0401c800d003000060
:020000040000fa
:0401cc00d00300005c
:020000040000fa
:0401d000d003000058
:020000040000fa
:0401d400d003000054
:020000040000fa
:0401d800d003000050
:020000040000fa
:0401dc00d00300004c
:020000040000fa
:0401e000d003000048
:020000040000fa
:0401e400d003000044
:020000040000fa
:0401e800d003000040
:020000040000fa
:0401ec00d00300003c
:020000040000fa
:0401f000d003000038
:020000040000fa
:0401f400d003000034
:020000040000fa
:0401f800d003000030
:020000040000fa
:0401fc00d00300002c
:020000040000fa
:100200004f9220000e7f24000e01880000000000a5
:10021000000020000000e000020032000001200089
:100220002002880014000700840107000000e0009d
:1002300003003a0080cc21000100200002003700ba
:100240000000200001002000810f7000010032003a
:1002500014000700000020000000e000020032004f
:100260000000020000000000f81d02000000000075
:100270000040da000000fe004440a900c000200059
:100280000000e00003003200002020009001880000
:100290004440a800000006008a1f78008b1f7800e9
:1002a00000000600a1028800800478000000eb0036
:1002b0001f003700e284440054a0b4009905ba003e
:1002c000e284440054a0b4009906ba00e2844400d9
:1002d00054a0b4000006eb00476fde00fd07b2003b
:1002e000ae018800636ce10003003a00eaff0700fa
:1002f0000000eb000e003700606ce10008003a00df
:10030000004deb000a05e800020039003420ec0043
:100310000af0a0008b05e900f9ff3e000400370059
:100320006168e100010032000086eb000b0007006d
:1003300019c7ba001905ba000e04e00003003a001c
:100340000a00e000dbff3a0000000600fe07b200f2
:10035000ae0288008a047800f5ff37000cd0a300b5
:10036000e20f4d001c00390089027800354dba00bb
:100370000a05e800020039003420ec000af0a00071
:100380008b05e9000f003200254dba000a05e80090
:10039000020039003420ec000af0a0008b05e900cf
:1003a000080032000c00e0000600320015cdba0053
:1003b0000a05e800020039003420ec000af0a00031
:1003c0008b05e9008984e80054a0b4000b00e0002c
:1003d000e2ff3a00000006009902ba00055d7800cd
:1003e0008b05e900f7ff3200c82ade00055d7800c2
:1003f0008b05e900f3ff32000c00e000f1ff320052
:1004000019ddba00eeff37004c17040000000000b1
:100410006a170400000000005612040000000000eb
:10042000d41b0400000000008e0d0400000000003a
:1004300040080400000000003e040400000000002a
:100440003600f800809fbe00829fbe00849fbe00e1
:10045000869fbe000000fa008020a9000000eb008b
:10046000d50d07000080fa004f03be004f02be000a
:100470004f01be004f00be003600f90000400600ec
:100480003600f800809fbe00829fbe00849fbe00a1
:10049000869fbe000000fa00ce0d07008040a90034
:1004a00010002000c40d07000080fa004f03be00ba
:1004b0004f02be004f01be004f00be003600f900e3
:1004c000004006003600f800809fbe00829fbe00fc
:1004d000849fbe00869fbe000000fa008060a900d5
:1004e00020002000b40d07000080fa004f03be007a
:1004f0004f02be004f01be004f00be003600f900a3
:10050000004006003600f800809fbe00829fbe00bb
:10051000849fbe00869fbe000000fa008080a90074
:1005200030002000a40d07000080fa004f03be0039
:100530004f02be004f01be004f00be003600f90062
:10054000004006003600f800809fbe00829fbe007b
:10055000849fbe00869fbe000000fa008600a900ae
:1005600070002000940d07000080fa004f03be00c9
:100570004f02be004f01be004f00be003600f90022
:10058000004006003600f800809fbe00829fbe003b
:10059000849fbe00869fbe000000fa00804180005c
:1005a000000001006141800050418000808f5000b8
:1005b00002003a009980a900190037008980a9003b
:1005c0001000370060418000904078008180fb007f
:1005d000e11c88000000e800604188006141800063
:1005e00070912000808f500002003a00e0902000bf
:1005f000604188006141800050418000808f500040
:1006000006003200d11c8000002020000080600025
:100610000000e000ebff32000100370000000000a6
:100620000080fa004f03be004f02be004f01be0023
:100630004f00be003600f900004006003600f8000a
:10064000809fbe00829fbe00849fbe00869fbe002a
:100650000000fa008960a9001e00370030418000c8
:10066000f11c800081407800014878003141800011
:10067000f0912000808f500009003200304180004e
:100680008000e80040418000808f5000040032006c
:10069000304180000000e800304188000d00370044
:1006a00031418000f0912000808f500007003a0017
:1006b0004141800070912000808f50000300320083
:1006c00070912000304188000200370010c0b30054
:1006d0002ee8b700d01c8000610060000000e00040
:1006e000deff3a0090418000000001000080fa0027
:1006f0004f03be004f02be004f01be004f00be00c0
:100700003600f90000400600801f78000000fa0063
:10071000d01c8000620060000000e0000100320098
:100720009a23a9009020a9000080fa004f007800c9
:10073000004006003600f800809fbe00829fbe0089
:10074000849fbe00869fbe000000fa00d04180005a
:100750000000e00002003200d041800000000100f3
:1007600010922000104078008040e8001092200095
:10077000014878000092200011c0b30001487800c1
:100780008860a9000080fa004f03be004f02be003f
:100790004f01be004f00be003600f90000400600c9
:1007a0000040da000000fe000a00fa0011002000fc
:1007b000b1bf9f00c0bf9f006a805700f7050700c8
:1007c0004fb897000080fa00000006000a00fa0007
:1007d000200798003107980042079800be0090005b
:1007e000110798000000eb00000f78000c003700a4
:1007f00000000000f00907000004a2000004e0006f
:10080000fcff3a001e009000104078009e0090000f
:100810008100e80011079800c70907001e0fe800d3
:100820004e0090009e007800808f5000f0ff39004d
:100830004e0090000080fa00000006000000050055
:100840000000fa0068815700cfb89700704480001c
:1008500010007800e90107000080fa00000006009f
:100860000d00070065000700160107003e010700a4
:1008700097000700600207000b0237000000060027
:100880004089200000000600fdff0700904488001a
:100890008044880000000600ec874700889fbe0067
:1008a0008a9fbe008c9fbe008e1f780000067800d5
:1008b0000104780018079000280590009806780039
:1008c000cdb79f00b80590003202be002203be00e3
:1008d0000400be000601be004f18de006011b80023
:1008e0008000eb00d0b79f00e1b79f00f2b79f00f8
:1008f00083bf9f00800478000900e00006003200fa
:100900006000b8006011b8000402500085825800f1
:1009100006035900878359000e00e00002003500ed
:100920000d10a100cdb79f000900e00005003a00be
:100930004fb097000028a30002003a000038a3003f
:10094000020032008a00e900010037008a007800c6
:10095000f8815700a20020000800780086000700f8
:100960000900e00003003a00cfb097000128a3007f
:10097000080032000000e90000814500b1c2b30068
:100980000900e00001003200d1c2b3000149780043
:10099000050037000138a300030032000000e90021
:1009a00001c2b30081757800480190000201e9009e
:1009b00000015100808045004fb297008a01780005
:1009c0000c007800570207009c0090000188a300eb
:1009d0000400320098009000810f500001003d009b
:1009e000010078004f0778004f06be004f05be009b
:1009f0004f04be00cf00b100000006000200fa0064
:100a0000889fbe008a9fbe008005780001047800a0
:100a100002007800180190002805900098007800e6
:100a2000b1bf9f00b80490000200e0000200350052
:100a30000110a100b1bf9f00ea8157008200200091
:100a40008a0078003002be002003be000800780053
:100a5000490007003fb99700f00061000300320031
:100a60000000e90001c3b300817478003fb997002a
:100a7000e8006100030032000000e90001c2b30099
:100a800081747800480190000201e90000015100e2
:100a9000808044003fba97008a0178000b007800fc
:100aa000200207009b0090000188a3000400320090
:100ab00098009000810f500001003d000100780077
:100ac0004f05be004f04be000080fa000000060083
:100ad000ea874700889fbe008a9fbe008e1f78006d
:100ae00000047800030078007287570084e2260033
:100af00055c72600049fbe00c3962200030f78004e
:100b00006c875700004feb0011059000a104900086
:100b1000910578000200e000020032000207780030
:100b200001003700728757000000e00002003a0021
:100b30000e007800c60407000a00e000030035003c
:100b40008a0f5000010036000a0078000b0278007e
:100b500089017800000178008e0078000800780094
:100b6000f00107004f0778004f05be004f04be009c
:100b7000af00b10000000600f4874700889fbe0068
:100b80008a9fbe008c9fbe008e1f78000605be00a7
:100b90000404be0081bf9f0082b79f00f3b79f008f
:100ba000b0009000e1b79f001301780092b79f005a
:100bb00090069000400090000000e90000067800d8
:100bc0000d00e00001003d001d0020008040eb0012
:100bd000efb19700817178001e0020001f003700e0
:100be0000c06e9000fb09700cf80de006109b90064
:100bf000a0b79f00b1b79f00c2b79f00d3b79f00b7
:100c00000203be000002be000800be000a01be00d2
:100c1000be050700000778000e4078000043b000d2
:100c2000efb0970080707e008d06e9000fb9970045
:100c30000201e90082bf9f002fb29700bfb2970068
:100c40004fb39700dfb397000800be000a01be0053
:100c5000a70507000205be000004be000c00e0006e
:100c60000d003400e00f5400e08f5c00e00f5d00e9
:100c7000e08f5d00daff3a000d00e000d8ff3c0095
:100c80008fb997000300e000030034001fb0970005
:100c90000018a300d2ff3a000e00e00002003a0064
:100ca000ffb097001140a1000c0078004f077800ba
:100cb0004f06be004f05be004f04be004f01b100fd
:100cc000000006000200fa00889fbe008a9fbe0056
:100cd00000057800010478000200780018019000f7
:100ce000a804900098007800b1bf9f00b80590005c
:100cf0000200e000020035000110a100b1bf9f001a
:100d0000ea815700a2002000890078003002be006e
:100d10002003be000800780097ff070048019000fc
:100d20000201e90000015100808045003fba9700b0
:100d3000890178000a0078007a0107009a00900083
:100d40000188a3000400320098009000810f500039
:100d500001003d00010078004f05be004f04be00b9
:100d60000080fa0000000600fa874700889fbe0056
:100d70008a9fbe008c9fbe008e1f78008004780082
:100d80000104780082057800180190002805900081
:100d900018077800b80090000200e000020035005b
:100da0000e10a10001003700120020007000670043
:100db000e0b79f00090032003b02be002b03be00db
:100dc000e00f5200e08f5a00e00f5b00e08f5b0005
:100dd000020032008a86e900010037008a067800a6
:100de000e8026700f5b79f00010032008d06e900b8
:100df0003b02be002b03be00e4af9f00f5af9f0097
:100e000086b79f0097b79f00480690000c06e90040
:100e10000040eb0080707e00efb297007fb2970039
:100e20008903780081047800d8af9f00020478001d
:100e30008bbf9f008a057800034578002a003700a1
:100e40000c06e9006fab97006f006300e90f5000dc
:100e500002003c000003b000010037007005b00044
:100e60000a03fb001604b100f90f53000c003e000a
:100e7000000378000650a0001606b100f90f5300d9
:100e800007003e00b4b79f00a5b79f00c7b79f00fb
:100e900018040700cfb39700afb297003fb2970096
:100ea00080747e000804e9008d06e9006fa89700b1
:100eb000ffa897000fb197009fb197004600200050
:100ec0008301d1000281d3008180d3000080d30050
:100ed0000603e900faff3a00e0af9f00f1af9f0080
:100ee00082b79f0093b79f00e10f56000f003400b8
:100ef0006fa89700ffa897000fb197009fb19700c8
:100f0000e00f5000e08f5800e00f5900e08f5900cb
:100f1000cbff3a000800e000c9ff3c000d00e000f4
:100f2000020034000e18a300c5ff3a0089007800c3
:100f3000f4b79f00870478005fac97008a4178007f
:100f40000b0578008fbd97000500e000100032000f
:100f50003b02be002b03be00e4af9f00f5af9f0035
:100f600086b79f0097b79f00e00f5200e08f5a00ae
:100f7000e00f5b00e08f5b00050032000c06e9002b
:100f800083707e000c06e90000c3b30080707e0011
:100f9000ffb297000500e000030032000c06e900f4
:100fa00000c2b30080707e00480190000201e90099
:100fb0000c0151008c8040000e0278008a017800fc
:100fc00009007800d7000700990090000188a3006d
:100fd0000400320098009000810f500001003d0095
:100fe000010078004f0778004f06be004f05be0095
:100ff0004f04be00af01b100000006000200fa007d
:10100000881f780000047800e2bf9f0064815700c9
:101010000800780082020700980090000148a300b1
:10102000010032000080eb004f0478000080fa00dd
:1010300000000600889fbe00000478004800900071
:1010400082047800808f540001003600800478000c
:101050000901780058009000120307005800900022
:101060000900400050049800c80090008984500096
:10107000490498000048eb004f04be000000060041
:1010800010007800d1fd3700900190000388a30084
:1010900001003200e7ff37000348a30001003a00d7
:1010a000f7ff07000000060084082000848f50002e
:1010b0001d0032000d003c0014082000848f5000f9
:1010c0002700320002003c00040820000400370022
:1010d00024082000848f500034003200440820008f
:1010e000848f500043003a0036003700040a200085
:1010f000848f50002700320004003c0004092000c7
:10110000848f50003b003a0028003700020c20007a
:10111000828f50002f003200020f2000828f50007b
:1011200034003a002b0037009380e9000200e00011
:1011300005003200810978001102fb00cfa2de0019
:10114000612bb9002800370081097800114278002e
:101150000482fb008002eb006033b80022003700fd
:1011600013027800e40052000200e00005003200a3
:10117000810978001102be004fabde0086037800c3
:1011800019003700810978001102be006033b800f1
:10119000150037009380e90081097800110278007a
:1011a000cfa2de00612bb9000f0037009302780058
:1011b000e8805200810978003102be002103be00a0
:1011c000090037009380e9000200e00002003200cd
:1011d000f1ff37009380e90081097800110278005f
:1011e0008002eb006033b8000498be000690be0099
:1011f000100005000000050044082000848f500006
:101200002500320008003c0014082000848f5000a4
:101210001400320024082000848f50002400320083
:10122000040820000c00370004092000848f5000bf
:101230001f00320004003c0084082000848f50000e
:1012400024003a000e003700040a2000848f50006a
:1012500011003200040c2000848f50001d003a0061
:101260000d0037009380e900810978009100780033
:1012700001087800cf91de008288be00140037009c
:101280009380e900810978009100780001087800d6
:10129000824878000e0037009380e90081097800c9
:1012a0009100780001087800820878000800370073
:1012b0009380e900810978009100780001087800a6
:1012c0006112b900612bb9008498be008690be00ff
:1012d0001000050000000500889fbe000004780093
:1012e0004800900082047800808f5400010036008e
:1012f0008004780009017800580090006902070016
:10130000580090000900400050049800c800900068
:1013100089845000490498000048eb004f04be0047
:1013200000000600f2874700889fbe008a9fbe002b
:101330008c9fbe008e1f7800800478000105780025
:1013400002047800830578006107620002003a0019
:101350008b0f540008003900080178008a007800db
:101360000900780048ff07008b0f54000200390085
:10137000880578001e003700088655000c017800ab
:10138000f00f56000100360002012000010220008b
:101390007e8057004a0207008c067800050037005f
:1013a00002012000fe8057000900780036ff070088
:1013b000f0865600ef8f5600f9ff3e004461de00d4
:1013c00000ff2f000091b90002014600fe80570087
:1013d000090078002cff07000e00e00004003a002e
:1013e000080178008a0078000900780026ff0700cd
:1013f0000b0078004f0778004f06be004f05be0077
:101400004f04be002f01b1000000060000000500df
:101410000000050000000500000178000040eb001e
:101420008080fb0081804000838f200063c27800b1
:101430000404e00003003a00908f200060c07800b0
:101440000000060092017800934f520004003a0019
:10145000908f200060c078000309e8000100370089
:101460000040e800ea4f5000edff360000000600a3
:10147000f6874700889fbe008a9fbe008c9fbe00f3
:101480008e1f78000005780001047800830578003d
:10149000040678000000eb00c0b79f008080eb00de
:1014a000d1b79f00e0b79f00f2b79f00000820006f
:1014b00080bf9f0098007800010078008004eb0056
:1014c000010037008904e800304178000204e000a0
:1014d0000300320053c2b300834f5100f9ff3a00ba
:1014e0000900e00004003200090178000a007800d9
:1014f000e5fe0700188c44001807780050c2b300be
:101500009e4f10003f013a000e07e8000e0c7800d5
:1015100010003700cfb097000100a0000b0037008b
:10152000cfb097000110a00008003700cfb097009f
:101530000120a00005003700cfb097000130a000c7
:1015400002003700cfb097000140a000c1b79f0054
:10155000000ce8001800780090407800b2c2b30098
:1015600082cf5000f1ff320007003c0002c2b300fe
:1015700082cf5000f0ff320032c2b30082cf500061
:1015800007003a00efff3700d2c2b30082cf50000d
:10159000e0ff320002c3b30082cf5000e0ff320010
:1015a000a2c2b30082cf50000d003a00000ce80048
:1015b0001c80e900000e780010007800e0b79f0062
:1015c0000000e0000f003d00cfb097000100a20036
:1015d000c1b79f000000ea00e0b79f000900370094
:1015e00084010700e0b79f0001003700000ce8000d
:1015f000180078009000fb000103b100e98f500053
:10160000faff36004fb097000008a3000200320036
:101610000010a100c0b79f0018007800e1c2b3001d
:1016200090cf100016003a008000eb00d1b79f0069
:101630000000e800000c7800a1c2b30090cf1000b9
:1016400006003a00000ce8001c80e900000e78005b
:1016500010007800d0b79f0009003700650107002f
:10166000d0b79f0001003700000ce8001800780098
:101670009000fb000103b100e98f5000faff360033
:101680000800780064ff07008046780018007800a2
:101690001000fb001002070091062000810f50008f
:1016a0003800320012003c0041062000810f50003b
:1016b000340032000a003c0011062000810f500067
:1016c0002000320031062000810f5000a0003200bf
:1016d00051022000810f5000bc003a00b4003700d6
:1016e00071062000810f5000b8003c0088003700d0
:1016f00001072000810f50005c00320007003c0011
:10170000e1062000810f50007a003200f10620002f
:10171000810f5000ad003a0039003700510720001a
:10172000810f50002700320081072000810f5000f8
:101730004200320031072000810f5000a3003a0020
:101740008f0037008d80fb000c01780000fe2f0019
:101750000f004000f20107000000e000a800320086
:1017600018007800000ce8009041780002fe2f007d
:101770000f014100f88057000a00780024ff07009d
:101780000e0037008d80fb008c01780012002000d5
:1017900000fe2f000f00400043fe07000000e000a5
:1017a00097003200180ce80002fe2f000f014100e4
:1017b000f88057000a00780037fc07008084440056
:1017c000900037008d80fb008c0178000001eb0059
:1017d00000fe2f000f00400033fe07000000e00075
:1017e00087003200180ce80002fe2f000f014100b4
:1017f000f88057000a00780032fd0700efff37003d
:101800008d80fb008c0178000001eb0000fe2f00b2
:101810000f00400024fe07000000e00078003200c6
:10182000180ce80002fe2f000f014100f88057005d
:101830000a00780071fc0700e0ff37008d80fb0094
:101840008c0178000001eb0000fe2f000f0040002b
:1018500015fe07000000e000690032001800780063
:10186000000ce800904178001c0037008c017800e3
:101870000001eb00010f200000fe2f000f004000d0
:1018800009fe07000000e0005d003200180ce800cf
:101890000fb097009fb097002fb19700bfb197008e
:1018a000e00f5000e08f5800e00f5900e08f590022
:1018b00009003a00cfb597006fb49700008f200061
:1018c000630107000b0278008801780000017800ae
:1018d000018f20004700370083c7b30002fe2f00ae
:1018e0000f014100f88057000a0078001efd070034
:1018f000b2ff37000b8144008d80fb008c01780023
:1019000000fe2f000f0040003bfe07003c003700a8
:101910008d80fb000c01780000fe2f000f004000be
:101920007f0107000000e000350032001800780059
:10193000000ce8009041780002fe2f000f014100ea
:10194000f88057000a007800b1fe07009bff3700bf
:1019500000c8b30080cf560029003a00180ce800f8
:101960001c80e900000e780010407800e0df9f0046
:1019700013002000e2fd2f000f0141000800370096
:1019800000c8b30080cf56001d003a00180ce800d4
:101990001c80e900000e78008001eb001001780047
:1019a000f88057000a00780049fc070083ff3700e1
:1019b00000c8b30080cf560011003a00180ce800b0
:1019c0004fb29700efb19700080037000e0c780077
:1019d0000000eb00c0b79f00e0b79f000080eb0065
:1019e000d0b79f000002eb008401780012002000b5
:1019f000618f20000a0078004afe07006fff370061
:101a0000180ce800090078004f0778004f06be0068
:101a10004f05be004f04be006f01b100000006007c
:101a20008200fa00889fbe008a1f780000057800b7
:101a300082047800c13f9f000004eb0010003700d3
:101a40000902780088017800a2f72f000f014100f9
:101a500081f72f008f8040000a00780084fe070085
:101a600008004000880f500004003d00b004200032
:101a7000104988000084eb0004003700000478005f
:101a80004f3897001004e000edff3a00080078009e
:101a90004f0578004f04be000080fa0000000600e9
:101aa000889fbe000004be000000eb000800e000bc
:101ab00018003200180090000058a3000d003200fa
:101ac000d800900068009000808f50000900360018
:101ad000b80990000001eb0082007800080078004f
:101ae00003000100d80090000080eb000100e0003e
:101af000080032000000eb00200c98006004980001
:101b0000500498000900e00002003200180078003c
:101b100025fb07004f04be0000000600889fbe00a2
:101b20000004be000000eb000800e00025003200c9
:101b3000180090000058a30011003200d800900057
:101b400068009000808f500009003600b8099000ae
:101b50000001eb008200780008007800030001001b
:101b6000d80090000080eb000100e000150032007a
:101b70000000eb00200c98006004980050049800ce
:101b8000780a900008109000800f52000600310083
:101b90000002520011002000cfa2de00612bb9002c
:101ba00018007800390007000000eb0000149800ce
:101bb000700c98000900e000020032001800780064
:101bc000f9fa07004f04be0000000600800078000c
:101bd0001000200002022000828f5000040032001a
:101be000e9805000e48f5000010036000000eb0057
:101bf00000000600889fbe008a1f7800000578005c
:101c00000a047800984478000805e8000900fb0001
:101c1000eeff07000000e000f9ff3a00b0c2b30099
:101c200080cf540005003200d0c2b3008000eb002a
:101c300080cf540005003a00020037008000eb001e
:101c400001003700110020000804e8000000eb004c
:101c5000030037006a02b900020052000003b0001e
:101c60003801fb0003fd2f0082814100e98f510004
:101c7000f8ff36000100e00001003a000000ea0031
:101c80004f0578004f04be0000000600a0fd2f00a5
:101c9000f1ff2f00860007004f89de0082017800e7
:101ca000000006008001780002003700b15978007a
:101cb0000201e9000200e000fcff3a00000006001b
:101cc000889fbe008a9fbe00800478000200e0006a
:101cd0005b00320001407800814c78008281440032
:101ce000f1f99f00e20f5100550036009144980031
:101cf000a1449800e1f99f00d1f99f00e60f51003f
:101d00004f003600b1449800c1f99f00e80f510020
:101d10004b0036000905ea00630565000a844400ab
:101d20000a055100c1ff2f00010565000080fb007e
:101d30008000eb001210200013102000cd000700df
:101d4000008cbe000a01440060b99f0071b99f0079
:101d5000e80f55003a00360020049800310498003e
:101d6000400498005104980020b99f0031b99f00a9
:101d700040b99f0051b99f00f80f55003000360060
:101d80006004980071049800000c9800110c9800f1
:101d9000200c9800310c9800400c9800510c9800d1
:101da00020b19f0031b19f0040b19f0051b19f0011
:101db00060b19f0071b19f0000b99f0011b99f00f1
:101dc00064016400780141000204440002055500ea
:101dd0006011b8000203be000002be000403be0092
:101de0006022b8000000720081807200020173005e
:101df0008381730010003700009cbe000294be0077
:101e000040049800510498006204980073049800fc
:101e1000000c9800110c9800220c9800330c9800cc
:101e2000400c9800510c9800620c9800730c9800bc
:101e30000a02b1000802b000ff0f5500eeff3e009d
:101e4000090078004f05be004f04be0000000600e8
:101e500080007800040037003104e00002003a00fe
:101e60000000510000000600010178000108a300f5
:101e7000f9ff3a008101780031017800f4ef2f007a
:101e8000020242000281ea00020162000408280006
:101e900004016100f7ff320083007800010178003f
:101ea0003104e000fdff3a00000051000000060090
:101eb00002002f00f3ff2f00820f5000838f580085
:101ec000040036000000ea00104988000080eb00a2
:101ed0008080eb0000000600f1fb2f0080804000b6
:101ee000f98f500001003e000050a00000000600e5
:101ef000f9ff3700f1f92f0080804000f98f500082
:101f000001003e00f005b20000000600f9ff3700b6
:101f1000000006005cfa0700fdff0700fcff370029
:101f2000881f78000004780000082000808f50008f
:101f30001700350010082000808f50000b0034007f
:101f400030082000808f500011003a009200780085
:101f500068805000000978003002be002003be00f7
:101f6000049cbe000694be00070037009202780071
:101f700064805200000978001000be0009000700cc
:101f8000009cbe000294be0010002000010037003b
:101f90000000eb004f0478000000060000c0da00eb
:101fa00000000600810378001d0007000001be004c
:101fb0006000b8000478a30013003a006220e1003a
:101fc00015003e000d0039008301d1000281d300cd
:101fd0008180d3008301d1000281d3008180d300ae
:101fe0008301d1000281d3008180d3000538b00085
:101ff000c42add00f300b2008381720007f0a7005d
:1020000003f0a0000000060083ff2700020020006c
:102010006110b900f9ff370003ff2700f7ff370011
:10202000c70ade00f107b200f50fb2000800320067
:10203000e1cf4200020032000170a0002400050040
:10204000810f700001003200040805004400050003
:10205000810f700002003a00140005008502e900bb
:102060000000400081c04800fcff3b000170a00060
:1020700024000500020ab900001bb9000200b800e4
:10208000810042008100430000000600889fbe00de
:102090008a9fbe0030044200b0844a0030054b00e5
:1020a00090854b006000b1000898be000a90be0009
:1020b0000440e10005c8e10006d0e10007d8e100d6
:1020c00002003100680040001008e8004f05be0023
:1020d0004f04be0000000600889fbe008a9fbe001d
:1020e0003004be002005be000418540005985c00b2
:1020f00006185d0007985d00110020000440e10013
:1021000005c8e10006d0e10007d8e1000100390070
:102110008000eb00108810004f05be004f04be0089
:10212000000006001200fa00889fbe008a9fbe00d1
:102130008c9fbe00e0b79f00f1b79f0082bf9f0059
:1021400093bf9f000605be000404be000000eb0024
:10215000d0b79f00c0b79f00b0b79f00a0b79f0047
:1021600090b79f00000678005fb19700cfb097004e
:10217000820141003fb097000200e00004003d00f2
:10218000370007007e805700c0ff070003003700bc
:10219000330007007e805700cfff0700dfb69700af
:1021a0000d00e0000c0035006fb29700ffb2970001
:1021b0000fbb97009fbb970010002000010020007c
:1021c0006011b80000027200818272000203730085
:1021d000838373001b0007000c06e8000104200045
:1021e000810f5600e0ff3a000d00e00004003d00c2
:1021f0000802be000a03be007e805700a3ff07004e
:102200005fa897000000e00005003a001fb29700a9
:10221000afb297003fb39700cfb397000900070014
:102220006fb09700ffb097000fb997009fb9970064
:102230004f06be004f05be004f04be000080fa00ee
:10224000000006000100070000000600a4b79f0080
:10225000b5b79f00c6b79f00d7b79f000000060024
:102260004f09de0082817100b3b79f004f01de008d
:102270008180400082807000a1b79f008fb09700de
:102280004f09de00000040000200700090b79f0080
:102290007fa897004f01de0081804000828070009f
:1022a00081b79f000d0007004f3ade00000040009c
:1022b00004007000f0af9f00080007000402420015
:1022c00085824a0006034b0087834b00dfff07002f
:1022d0000802be000a03be00000006002fb29700ed
:1022e000bfb297004fb39700dfb39700000006001e
:1022f000881f780018002000881f780089ff0700d9
:102300008f87e9004f04780000000600801feb0073
:1023100084ff07008f87e90000000600889fbe0049
:102320008a9fbe00e00f5000e08f5800e00f590078
:10233000e08f59000c003d006044b8006055b800c3
:102340000000540081805c0002015d0083815d001b
:10235000180020001500070008003d0018000700c5
:102360000004eb00050037000004eb000f0007003d
:1023700002003d001200070018002000dcff0700eb
:102380000800e000060032006022b8006033b800a8
:102390000000520081805a0002015b0083815b00d3
:1023a0004f05be004f04be0000000600e00f5200c3
:1023b000e08f5a00e00f5b00e08f5b00000006003a
:1023c0006044b8006055b8000402540085825c0087
:1023d00006035d0087835d0000000600889fbe0045
:1023e0008a9fbe008c1f7800e00f5000e08f5800dd
:1023f000e00f5900e08f59000d003d006044b80027
:102400006055b8000000540081805c0002015d004e
:1024100083815d001c0020000820e10009a8e10084
:102420000ab0e1000bb8e1000d003d0008003700e4
:102430000006eb00e00f5200e08f5a00e00f5b0057
:10244000e08f5b0006003d006044b8006055b800b6
:102450000402540085825c0006035d0087835d00f2
:10246000aaff07000c00e000060032006022b8005e
:102470006033b8000000520081805a0002015b0006
:1024800083815b004f0678004f05be004f04be00fd
:042490000000060042
:020000040000fa
:1024940025300000325800000a00000025300000fa
:0824a400345800000a0000009a
:020000040000fa
:1024ac000000fa00703480004400de0061406000df
:1024bc000004a200614060000080fb00610060002d
:1024cc004400dd00713480000140a1000100700067
:1024dc00703488000080fa00000006000200fa0048
:1024ec00000f78001e0078008040eb000148780057
:1024fc001e0078008040eb00114098000080fa002c
:10250c00000006000200fa00004f7800f0c2b30091
:10251c009e40780080cf50000700360090c3b30077
:10252c009e40780080cf500003003e0000cdb300e9
:10253c001e4040001700370000c4b3009e407800d6
:10254c0080cf50000700360060c4b3009e40780076
:10255c0080cf500003003e0090ccb3001e404000e2
:10256c000c00370000c6b3009e40780080cf5000ae
:10257c000700360060c6b3009e40780080cf500044
:10258c0003003e0090cab3001e404000010037001b
:10259c0000c0eb000080fa00000006000000fa000a
:1025ac00c0882000cdff07000428ef000228ef00b0
:1025bc000080fa00000006000800fa0020079800ce
:1025cc0061479800ee40900000c2b30080cf5000ed
:1025dc00030032006e409000e94f500002003a00b8
:1025ec00e0ff2f003f003700ee409000c0c2b30068
:1025fc0080cf5000090032006e409000ed4f50002b
:10260c00060032006e409000ea4f5000030032008a
:10261c006e4090000004e0000f003a002e00900085
:10262c0010409000e14f500009003a002e0090003d
:10263c0090407800214798002e0090008040eb00dd
:10264c00114098002e4090000080fb0025003700c0
:10265c00e0ff2f00230037006e409000a9ff070019
:10266c00004f78001e407800ef4f500005003600f8
:10267c002e0090008040eb00114098000080eb0091
:10268c00180037002e009000104090000004e0006d
:10269c0007003a002e0090001e4878002e00900093
:1026ac0011c0b30011409800e0ff2f000d0037005f
:1026bc002e009000104078000080fb004400dd00ec
:1026cc00804078001e40780000c0700010479800d1
:1026dc002e0090008040eb00114098001e409000ae
:1026ec000080fb000080fa00000006001c00fa00cd
:1026fc00889fbe008a9fbe008c9fbe0060479800da
:10270c0071479800024f980053079800444f980067
:10271c00554f9800664f98006e40900061406000e5
:10272c0000404000804078007e4090006140600096
:10273c0000cf70006000b8001007980021079800c7
:10274c001e80fb000000d100004078000080fb00e0
:10275c008000eb0000007800610060008000eb005e
:10276c00110f9800000f98000e0890009e08900022
:10277c00ca00dd00000020001e019000ae01900098
:10278c0000007100818071001007980021079800eb
:10279c001e80fb008000eb000000780061006000f0
:1027ac008000eb00310f9800200f98002e0890004d
:1027bc00be089000c900dd00000020001e01900042
:1027cc00ae0190000000710081807100100798002c
:1027dc00210798000e4890000081fb008001eb005f
:1027ec00f0032000010020000202780003017800b1
:1027fc008001780081007800030062008100610094
:10280c00510f9800400f98004e089000de08900081
:10281c00c300dd00000020001e019000ae019000fe
:10282c00000071008180710010079800210798004a
:10283c005e0090006101b8004318dd00cd10de0091
:10284c00810070004310dd001e019000ae0190006d
:10285c00000071008180710010079800210798001a
:10286c004e4890000080fb008000eb0000007800d8
:10287c00610060008006eb00000678000c01be00d1
:10288c004218dd00ce10de00810070004210dd0029
:10289c001e019000ae01900000007100818071005b
:1028ac0010079800210798005e4890000080fb00fc
:1028bc008000eb0000007800610060008005eb00f8
:1028cc00000578000a00be0000004000818048002e
:1028dc001e019000ae01900000007100818071001b
:1028ec0010079800210798006e4890000080fb00ac
:1028fc008000eb0000007800610060008004eb00b9
:10290c00000478000800be001e019000ae0190008b
:10291c000000710081807100100798002107980059
:10292c001e009000ae0090004f06be004f05be008a
:10293c004f04be000080fa00000006000a00fa00f6
:10294c00300798004107980050c0b300204798000a
:10295c000040eb00004f78000040eb00104798005f
:10296c00230037001e4090000080fb007a0210000c
:10297c003e019000ce019000f002120004003b00da
:10298c008502ea000518de008000eb000400370029
:10299c00851add000410de00008072008418de0051
:1029ac000040780061406000304798001e80fb00ba
:1029bc004400de0000407800614060004047980011
:1029cc001e407800004040007f4f6000ce409000d9
:1029dc003e40900080cf5000020032002e4090000c
:1029ec001e4f68001e4090000040e8001047980001
:1029fc001e409000fa4f5000daff36009e407800df
:102a0c007fc060000080fa00000006000600fa009b
:102a1c00008fbe00424798001e00be004509dd0035
:102a2c00cb01de00830171004501dd004e409000ba
:102a3c000080fb008000eb00000078007f0060004d
:102a4c008002eb00000278000400be000000710060
:102a5c00818071000080fa00000006001400fa006a
:102a6c0020408000e70f500043003600c087200054
:102a7c0010407800614f6000d08720001040780033
:102a8c006140600010479800e087200010407800fb
:102a9c00f043b20020479800f087200010407800e7
:102aac000080fb00c800dd0000882000104078008a
:102abc000080fb00010070002007980010882000a7
:102acc00104078006140600060479800208820002a
:102adc0010407800614060007047980030882000fa
:102aec001040780061406000004f98000e4b900041
:102afc00fe4290006e429000ae0190002e4190007c
:102b0c009e4090001e407800f8fe07005007980089
:102b1c00610798005e009000ee00900087ff0700b0
:102b2c00604f98006e4990005e009000ee0090009f
:102b3c00b6ff0700000f9800110f98005e0190007f
:102b4c00ee0190007240880083408800ee489000af
:102b5c0023812000814978000e0990009e09900085
:102b6c00424088005340880010c0b3000ce8b70006
:102b7c000028ef0002003700100020000040880001
:102b8c0086fe07000080fa00000006000000fa0034
:102b9c000c68ef0040408000514080000080fa003b
:102bac00000006000000fa000cc8bf000080fb000b
:102bbc000000ea004f00de00004078000080fa00c0
:102bcc00000006000400fa0031003700c1000700c5
:102bdc00004f780011408000f0032000808f5000df
:102bec0007003e0010408000c18320001e41780089
:102bfc00827078000000e800104088000400370064
:102c0c00300020000040880064fe07000228ef001e
:102c1c009e407800c088200067fe070010079800cf
:102c2c001e0090000000e0001000350020408000e5
:102c3c00ef0f500008003e00204080009e009000e6
:102c4c0001417800c1872000827078000000e80004
:102c5c00204088000a003700200020000040880037
:102c6c004efe07000428ef00050037001e00900000
:102c7c00e10f400002003a004000200000408800b4
:102c8c001e407800ea4f500001003a0073ff070025
:102c9c00bb0007000004e000ccff3a000080fa0003
:102cac00000006000400fa00beff07000004e0006c
:102cbc004d003200b5ff0700008fbe006606a9006c
:102ccc001e00be00710207006000b8006f02070012
:102cdc00f0408800014188006606a800a0cab30035
:102cec001ce8b700f04080000141800000407800f3
:102cfc007f40600013e8b700f04080000141800085
:102d0c004b09dd004500de0000007100c508de0047
:102d1c00a0408800b1408800a0408000b1408000f5
:102d2c0006ff070018e8b700f04080000141800062
:102d3c004809dd004800de0000007100c808de0014
:102d4c0000007800d0408800f040800001418000f5
:102d5c004b09dd004500de0000007100c508de00f7
:102d6c0000407800614060001de8b70081812000c0
:102d7c009140780013c8bf0080c068000180fb0040
:102d8c000000ea004f00de00804078001dc8bf0044
:102d9c000004a2000080fb000000e9004f00de00f0
:102dac000040780000c070000004e0000800320011
:102dbc001cc8bf000080fb00801f7800a0242900e5
:102dcc00801f78009bf60700e48757000600370049
:102ddc00d0408000801f780000252900801f7800db
:102dec0094f60700e48757000080fa000000060004
:102dfc000000fa009980a9009960a90080002000c9
:102e0c00c01c88009a23ef0080002000001d880061
:102e1c00a223ef00e090200060418800e0902000a9
:102e2c005041880070912000404188007091200032
:102e3c00304188002e68ef00c074210007000700a5
:102e4c00a0762100140007009960a80099e3a8005f
:102e5c009b43a8000080fa00000006000200fa0064
:102e6c00000f78001e0078000000e00003003a001c
:102e7c00c074210080418800020037009e00780059
:102e8c00814188000080fa00000006000000fa0072
:102e9c000080fa00000006000200fa00000f780023
:102eac001e0078000000e00003003a00a07621002c
:102ebc0090418800020037009e0078009141880004
:102ecc000080fa00000006000000fa000080fa0002
:102edc00000006000200fa000040eb00004f7800f2
:102eec00000000004141800030418000808f500084
:102efc00fcff320040418000104f780040418000c0
:102f0c000000e80040418800414180000092200010
:102f1c00808f500002003a007091200040418800e0
:102f2c001e4078000080fa00000006000200fa0043
:102f3c00004f7800000000001c0007000004a200f5
:102f4c000004e000fcff3a00504180001e4878006d
:102f5c00504180000000e800504188005141800041
:102f6c0070912000808f500002003a00e090200009
:102f7c00504188009980a8000080fa0000000600eb
:102f8c000000fa0041418000304180000080680060
:102f9c0000f0a7000000ea000000ea004f00de008d
:102fac00004078000080fa00000006000400fa00df
:102fbc006141800011079800514180001e00900073
:102fcc00808f5000060031009e0090005041800020
:102fdc00008050000000e900000f78000500370069
:102fec009e0090005041800000805000680040001e
:102ffc00000f78001e00780000f0a7000000ea0027
:10300c000000ea004f00de00004078000080fa006b
:10301c00000006000000fa00514180006041800071
:10302c00808f500009003a00d11c80000010200055
:10303c000080600000f0a7000000ea000000ea0039
:10304c004f00de0000407800010037000040eb002c
:10305c000080fa00000006000400fa0031418000f4
:10306c0011079800404180009e009000808f500016
:10307c00060031009e00900040418000008050000e
:10308c0069004000000f7800030037009e0090009c
:10309c0040418000008f5000f00f20009e0078000f
:1030ac00808f50000200360000c0eb000200370099
:1030bc001e007800004078000080fa000000060036
:1030cc000400fa0061418000110798005141800012
:1030dc001e009000808f5000060031009e00900072
:1030ec0050418000008050000000e900000f780083
:1030fc00050037009e009000504180000080500079
:10310c0068004000000f7800f00f20009e0078004f
:10311c00808f50000200360000c0eb000200370028
:10312c001e007800004078000080fa0000000600c5
:10313c000800fa002007980031079800c6ff070026
:10314c000080fb00000f78003e0090009e0f5000a6
:10315c0002003100be009000010f78000000eb006f
:10316c0010079800090037005aff0700ae009000c6
:10317c00804878002e0090000000e800200798009e
:10318c001e0090000000e800100798001e00900040
:10319c009e0f5000f4ff39001e0078000080fa00ea
:1031ac00000006000800fa0020079800310798007c
:1031bc00c3ff07000080fb00000f78003e0090006a
:1031cc009e0f500002003100be009000010f7800ed
:1031dc000000eb0010079800090037002e0090004b
:1031ec0010407800ae0090008100e80021079800a4
:1031fc004eff07001e0090000000e800100798002a
:10320c001e0090009e0f5000f4ff39001e00780045
:10321c000080fa00000006000400fa000000eb0039
:10322c00000f78008cff070020479800a4ff0700d0
:10323c00304798002e4090000080fb000000e0001a
:10324c0003003200e90f5000030032000400370085
:10325c001e20a000040037001e00a0000200370052
:10326c001e10a000000000003e4090000080fb00fb
:10327c000000e00003003200e90f500003003200b0
:10328c00040037001e30a000020037001e40a000d2
:10329c00000000001e0078000080fa00000006000c
:1032ac000400fa0010079800414180001e009000b5
:1032bc00008f4000020037009e007800698f50009c
:1032cc00009220009e007800808f5000faff3e0094
:1032dc001e007800104078000080fa000000060004
:1032ec000000fa005cff07000080fb000000e90012
:1032fc004f00de00004078000080fa00000006005d
:10330c000000fa006eff07000080fb000000e900df
:10331c004f00de00004078000080fa00000006003c
:10332c000000fa00d01c80000080fa0000000600ab
:10333c000000fa0062ff07000004e00010003200f9
:10334c006141800050418000808f500006003600a3
:10335c006041800080007800504180000080500067
:10336c000000e90007003700604180008000780011
:10337c005041800000805000680040000100370080
:10338c000000eb000080fa00000006000000fa00cc
:10339c0031ff07000004e0001000320041418000c2
:1033ac0030418000808f5000060036004041800084
:1033bc008000780030418000008050000000e9005f
:1033cc0007003700404180008000780030418000c9
:1033dc000080500068004000010037000000eb0046
:1033ec000080fa00000006000000fa0099e3a80033
:1033fc009b43a8000080fa00000006000000fa00c1
:10340c0099e3a9009b43a9000080fa000000060084
:10341c000000fa00f623ef00f823ef00fc23ef0086
:10342c0090002000202088002000200040208800f0
:10343c000a24ef000c24ef000e24ef000092280069
:10344c00a01f88000080fa00000006000400fa00ab
:10345c00000f78001107980000000000e01f8000aa
:10346c00620060000000e000fcff3a001e007800e3
:10347c0010007800002088001e0078000080e80012
:10348c00100078001020880000000000e11f800070
:10349c0000022000008060000000e000fbff3a000a
:1034ac001e00900001208000010878001e00900092
:1034bc000080e80011208000010878000080fa00ec
:1034cc00000006001a00fa00200f9800310f980037
:1034dc00420f98000000eb00000f78000000eb009a
:1034ec00100798000000eb00700798006000b8000f
:1034fc00000f9800110f9800400020006007980002
:10350c003e0890004200de00300f98002e0890001c
:10351c000000e00005003a000000eb0050079800a6
:10352c00700047002007980004003700ee00900060
:10353c0051079800ae089000210798004e089000a3
:10354c000000e00005003a000000eb004007980086
:10355c006e0047003007980005003700ee00900021
:10356c0041079800ce089000310798000000000039
:10357c00e01f8000620060000000e000fcff3a00e9
:10358c0023003700e01f8000620060000000e000b4
:10359c000c003a002e0090001000780000208800eb
:1035ac002e0090000080e8001000780010208800a9
:1035bc00ae0090005e009000008040002007980054
:1035cc001e0fe800e11f8000000220000080600058
:1035dc000000e0000e003a003e0090000120800048
:1035ec00010878003e0090000080e8001120800067
:1035fc0001087800be0090004e0090000080400052
:10360c00300798001e0090000000e800100798009a
:10361c003e0890009e007800808f5000d9ff390042
:10362c0013003700e11f80000002200000806000c2
:10363c000000e0000e003a003e00900001208000e7
:10364c00010878003e0090000080e8001120800006
:10365c0001087800be0090004e00900000804000f1
:10366c00300798001e0090000000e800100798003a
:10367c009e0090003e089000808f5000e9ff3900ba
:10368c001e0078000080fa00000006000800fa0016
:10369c0020079800310798008e00780064004700de
:1036ac006aff07001e00be000080fa000000060042
:1036bc000600fa00000f7800110798002207980006
:1036cc00ae0090001e007800010178009e00900072
:1036dc007cff07000080fa00000006000000fa00e2
:1036ec00e01f80000080fa00000006000000fa00d5
:1036fc009021ef0010a12700900c880000022800f8
:10370c00a00c8800d04180000000e00002003a00cc
:10371c0040bd2100240007008860a9009860a80023
:10372c00009220008040eb00014878000080fa00f5
:10373c00000006000200fa00000f78009e007800de
:10374c00910c8800009220008040eb00014878002a
:10375c000080fa00000006000000fa00900c8000c7
:10376c000080fa00000006000200fa00000f78004a
:10377c009e007800810c8800009220008040eb00b5
:10378c00014878000080fa00000006000000fa00f2
:10379c00800c80000080fa00000006000000fa0097
:1037ac000080fa00000006000200fa00000f78000a
:1037bc009860a9009e007800d14188009860a8000c
:1037cc000080fa00000006000000fa0000922000c1
:1037dc008040eb00014878009860a80095e1a800b3
:1037ec000080fa00000006000000fa0095e1a90034
:1037fc009860a9000080fa00000006000200fa00a0
:10380c0000922000104f78001e4078000004e00069
:10381c0003003200009220008040eb000148780049
:10382c001e4078000080fa00000006000000fa003c
:10383c0010922000104078000080fb000080fa00fd
:10384c00000006000000fa00109220008040eb00ff
:10385c00014878000080fa00000006000000fa0021
:10386c00100020003033880000002400d033880082
:10387c00001420007034880040f9270010338800b1
:10388c00d0ff2b00b0338800f02a20005034880081
:10389c007426ef008826ef009c26ef001000200015
:1038ac00903388008626ef009a26ef006826ef00fa
:1038bc007c26ef009026ef0040002000503388005b
:1038cc00c0202b00f0338800f000200090348800da
:1038dc0001088000f00b20000081600060042000d3
:1038ec007105200003102000804978008149780080
:1038fc0082497800713f8000f00f28000080600042
:10390c0000b0a000703f8800a13d800000fc2f009b
:10391c00008060009001b300a03d8800613f8000f2
:10392c0000f82f00008060003000b300603f88007a
:10393c00a13e8000f00f2800808060000070200005
:10394c0001007000a03e8800c13d800000fc2f00eb
:10395c0000806000c03d88000008800000017800f5
:10396c000260a000600420007105200003102000fc
:10397c008049780081497800824978000080fa00fb
:04398c000000060031
:020000040000fa
:103990003c08000052000000800000000008000009
:1039a0002600000080000000d00800002000000079
:1039b00080000000380800000200000082000000c3
:1039c000ffff000034080000040000008000000039
:1039d0000e09000012000000800000002608000010
:1039e0000e0000008000000020090000020000001e
:1039f000800000003a080000020000008000000083
:103a00008e0800004200000082000000920894002e
:103a100008940800010003000000000000000000fe
:103a20000000000000008e000d00000000000000fb
:103a3000004008003e0400000000000000000000fc
:103a40000000000000000000000000000000000076
:103a50000000000000000000000000000000000066
:103a600000000000f00800001e00000082000000be
:103a7000286e69006c29000025006800076c0900a9
:103a80004c836a009074a0007ac0000080688800af
:103a900000846c0082008100220900000200000006
:083aa00080000000000000009e
:020000040000fa
:103aa8000000fa0000002300100888000621ef003b
:103ab8006821ef006a21ef000821ef000070200064
:103ac800500888000c21ef000e21ef007821ef004c
:103ad8007a21ef007c21ef007e21ef008021ef00aa
:103ae8008221ef008421ef008621ef000001eb0026
:103af80080072000a10920001310200080497800c9
:103b080081497800824978000001eb0060042000b8
:103b18007105200003102000804978008149780051
:103b2800824978000080fa00000006000000fa00d0
:103b380061058000f0f82f00008060000040a000c0
:103b48006005880021068000f08f2f00008060004b
:103b58000080a0002006880041068000f0f82f00b1
:103b6800008060000040a0004006880071058000c9
:103b780080ff2f00008060000000a0007005880012
:103b880061058000f0ff28000080600000c0a000f0
:103b98006005880041058000f0ff28000080600073
:103ba80000c0a000400588000080fa000000060060
:103bb8000200fa00000f78009e007800c1418800da
:103bc8000000fe000080fa00000006000000fa0075
:103bd800008d200080077800808e2000000188007a
:103be8000080fa00000006000000fa000a00070042
:103bf80060252100edfe070001003700b6fc070034
:103c0800e0fc07000004e000fcff3a00eefb0700c0
:103c180025fc0700fdff37000000fa0010ff070031
:103c2800c2ff07009eff0700fafd0700b0fe07006d
:103c380070fc07000080fa0000000600809fbe00ac
:103c4800ec80570031007800a0418800110078000e
:0c3c580036e8b7004f00be000000060078
:020000040000fa
:020000040002f8
:04be0000ffffff0041
:020000040000fa
:020000040002f8
:04be2000ffffff0021
:020000040000fa
:020000040002f8
:04be300078ffff0098
:020000040000fa
:020000040002f8
:04be3800b7ffff0051
:020000040000fa
:020000040002f8
:04be40009fffff0061
:020000040000fa
:020000040002f8
:04be4800ffffff00f9
:020000040000fa
:020000040002f8
:04be5000deffff0012
:020000040000fa
:020000040002f8
:04be5800ffffff00e9
:00000001FF
